{
  "contractName": "Chain3Crowdsale",
  "abi": [
    {
      "constant": true,
      "inputs": [],
      "name": "rate",
      "outputs": [
        {
          "name": "",
          "type": "uint256"
        }
      ],
      "payable": false,
      "stateMutability": "view",
      "type": "function"
    },
    {
      "constant": true,
      "inputs": [],
      "name": "endTime",
      "outputs": [
        {
          "name": "",
          "type": "uint256"
        }
      ],
      "payable": false,
      "stateMutability": "view",
      "type": "function"
    },
    {
      "constant": true,
      "inputs": [],
      "name": "cap",
      "outputs": [
        {
          "name": "",
          "type": "uint256"
        }
      ],
      "payable": false,
      "stateMutability": "view",
      "type": "function"
    },
    {
      "constant": true,
      "inputs": [],
      "name": "goal",
      "outputs": [
        {
          "name": "",
          "type": "uint256"
        }
      ],
      "payable": false,
      "stateMutability": "view",
      "type": "function"
    },
    {
      "constant": true,
      "inputs": [],
      "name": "weiRaised",
      "outputs": [
        {
          "name": "",
          "type": "uint256"
        }
      ],
      "payable": false,
      "stateMutability": "view",
      "type": "function"
    },
    {
      "constant": false,
      "inputs": [],
      "name": "finalize",
      "outputs": [],
      "payable": false,
      "stateMutability": "nonpayable",
      "type": "function"
    },
    {
      "constant": true,
      "inputs": [],
      "name": "tokensForEcosystem",
      "outputs": [
        {
          "name": "",
          "type": "uint256"
        }
      ],
      "payable": false,
      "stateMutability": "view",
      "type": "function"
    },
    {
      "constant": true,
      "inputs": [],
      "name": "wallet",
      "outputs": [
        {
          "name": "",
          "type": "address"
        }
      ],
      "payable": false,
      "stateMutability": "view",
      "type": "function"
    },
    {
      "constant": true,
      "inputs": [],
      "name": "totalTokensForSale",
      "outputs": [
        {
          "name": "",
          "type": "uint256"
        }
      ],
      "payable": false,
      "stateMutability": "view",
      "type": "function"
    },
    {
      "constant": true,
      "inputs": [],
      "name": "tokensForBounty",
      "outputs": [
        {
          "name": "",
          "type": "uint256"
        }
      ],
      "payable": false,
      "stateMutability": "view",
      "type": "function"
    },
    {
      "constant": true,
      "inputs": [],
      "name": "startTime",
      "outputs": [
        {
          "name": "",
          "type": "uint256"
        }
      ],
      "payable": false,
      "stateMutability": "view",
      "type": "function"
    },
    {
      "constant": true,
      "inputs": [],
      "name": "goalReached",
      "outputs": [
        {
          "name": "",
          "type": "bool"
        }
      ],
      "payable": false,
      "stateMutability": "view",
      "type": "function"
    },
    {
      "constant": true,
      "inputs": [],
      "name": "isFinalized",
      "outputs": [
        {
          "name": "",
          "type": "bool"
        }
      ],
      "payable": false,
      "stateMutability": "view",
      "type": "function"
    },
    {
      "constant": true,
      "inputs": [],
      "name": "owner",
      "outputs": [
        {
          "name": "",
          "type": "address"
        }
      ],
      "payable": false,
      "stateMutability": "view",
      "type": "function"
    },
    {
      "constant": true,
      "inputs": [],
      "name": "totalWeiRaisedDuringPreICO",
      "outputs": [
        {
          "name": "",
          "type": "uint256"
        }
      ],
      "payable": false,
      "stateMutability": "view",
      "type": "function"
    },
    {
      "constant": false,
      "inputs": [],
      "name": "claimRefund",
      "outputs": [],
      "payable": false,
      "stateMutability": "nonpayable",
      "type": "function"
    },
    {
      "constant": true,
      "inputs": [],
      "name": "totalTokensForSaleDuringPreICO",
      "outputs": [
        {
          "name": "",
          "type": "uint256"
        }
      ],
      "payable": false,
      "stateMutability": "view",
      "type": "function"
    },
    {
      "constant": true,
      "inputs": [],
      "name": "stage",
      "outputs": [
        {
          "name": "",
          "type": "uint8"
        }
      ],
      "payable": false,
      "stateMutability": "view",
      "type": "function"
    },
    {
      "constant": true,
      "inputs": [],
      "name": "maxTokens",
      "outputs": [
        {
          "name": "",
          "type": "uint256"
        }
      ],
      "payable": false,
      "stateMutability": "view",
      "type": "function"
    },
    {
      "constant": false,
      "inputs": [
        {
          "name": "beneficiary",
          "type": "address"
        }
      ],
      "name": "buyTokens",
      "outputs": [],
      "payable": true,
      "stateMutability": "payable",
      "type": "function"
    },
    {
      "constant": false,
      "inputs": [
        {
          "name": "newOwner",
          "type": "address"
        }
      ],
      "name": "transferOwnership",
      "outputs": [],
      "payable": false,
      "stateMutability": "nonpayable",
      "type": "function"
    },
    {
      "constant": true,
      "inputs": [],
      "name": "vault",
      "outputs": [
        {
          "name": "",
          "type": "address"
        }
      ],
      "payable": false,
      "stateMutability": "view",
      "type": "function"
    },
    {
      "constant": true,
      "inputs": [],
      "name": "token",
      "outputs": [
        {
          "name": "",
          "type": "address"
        }
      ],
      "payable": false,
      "stateMutability": "view",
      "type": "function"
    },
    {
      "constant": true,
      "inputs": [],
      "name": "tokensForTeam",
      "outputs": [
        {
          "name": "",
          "type": "uint256"
        }
      ],
      "payable": false,
      "stateMutability": "view",
      "type": "function"
    },
    {
      "inputs": [
        {
          "name": "_startTime",
          "type": "uint256"
        },
        {
          "name": "_endTime",
          "type": "uint256"
        },
        {
          "name": "_rate",
          "type": "uint256"
        },
        {
          "name": "_wallet",
          "type": "address"
        },
        {
          "name": "_goal",
          "type": "uint256"
        },
        {
          "name": "_cap",
          "type": "uint256"
        }
      ],
      "payable": false,
      "stateMutability": "nonpayable",
      "type": "constructor"
    },
    {
      "payable": true,
      "stateMutability": "payable",
      "type": "fallback"
    },
    {
      "anonymous": false,
      "inputs": [
        {
          "indexed": false,
          "name": "text",
          "type": "string"
        }
      ],
      "name": "EthTransferred",
      "type": "event"
    },
    {
      "anonymous": false,
      "inputs": [
        {
          "indexed": false,
          "name": "text",
          "type": "string"
        }
      ],
      "name": "EthRefunded",
      "type": "event"
    },
    {
      "anonymous": false,
      "inputs": [],
      "name": "Finalized",
      "type": "event"
    },
    {
      "anonymous": false,
      "inputs": [
        {
          "indexed": true,
          "name": "previousOwner",
          "type": "address"
        },
        {
          "indexed": true,
          "name": "newOwner",
          "type": "address"
        }
      ],
      "name": "OwnershipTransferred",
      "type": "event"
    },
    {
      "anonymous": false,
      "inputs": [
        {
          "indexed": true,
          "name": "purchaser",
          "type": "address"
        },
        {
          "indexed": true,
          "name": "beneficiary",
          "type": "address"
        },
        {
          "indexed": false,
          "name": "value",
          "type": "uint256"
        },
        {
          "indexed": false,
          "name": "amount",
          "type": "uint256"
        }
      ],
      "name": "TokenPurchase",
      "type": "event"
    },
    {
      "constant": false,
      "inputs": [
        {
          "name": "value",
          "type": "uint256"
        }
      ],
      "name": "setCrowdsaleStage",
      "outputs": [],
      "payable": false,
      "stateMutability": "nonpayable",
      "type": "function"
    },
    {
      "constant": false,
      "inputs": [
        {
          "name": "_teamFund",
          "type": "address"
        },
        {
          "name": "_ecosystemFund",
          "type": "address"
        },
        {
          "name": "_bountyFund",
          "type": "address"
        }
      ],
      "name": "finish",
      "outputs": [],
      "payable": false,
      "stateMutability": "nonpayable",
      "type": "function"
    },
    {
      "constant": true,
      "inputs": [],
      "name": "hasEnded",
      "outputs": [
        {
          "name": "",
          "type": "bool"
        }
      ],
      "payable": false,
      "stateMutability": "view",
      "type": "function"
    }
  ],
  "bytecode": "0x60606040526007805460a060020a60ff0219908116909155600980549091169055681043561a8829300000600a556801a055690d9db80000600b8190556801158e460913d00000600c55678ac7230489e80000600d556804e1003b28d9280000600e55600f5534156200007157600080fd5b60405160c080620034528339810160405280805191906020018051919060200180519190602001805191906020018051919060200180519150829050818787878742841015620000c057600080fd5b83831015620000ce57600080fd5b60008211620000dc57600080fd5b600160a060020a0381161515620000f257600080fd5b6200010a64010000000062001068620001f982021704565b60008054600160a060020a0319908116600160a060020a039384161782556001969096556002949094556004929092556003805490941691161790915581116200015357600080fd5b60065560078054600160a060020a03191633600160a060020a0316179055600081116200017f57600080fd5b600354600160a060020a03166200019562000221565b600160a060020a039091168152602001604051809103906000f0801515620001bc57600080fd5b60098054600160a060020a031916600160a060020a039290921691909117905560085580821115620001ed57600080fd5b50505050505062000243565b60006200020562000232565b604051809103906000f08015156200021c57600080fd5b905090565b60405161060c80620020b383390190565b604051610d9380620026bf83390190565b611e6080620002536000396000f300606060405260043610620001615763ffffffff60e060020a6000350416632c4e722e8114620002fd5780633197cbb61462000325578063355274ea146200033b5780634019388314620003515780634042b66f14620003675780634bb278f3146200037d5780634c4cfc3b1462000395578063521eb27314620003ab57806360219c7b14620003dd578063644280e214620003f357806378e9792514620004095780637d3d6522146200041f5780637e02bb0f14620004495780638d4e408314620004775780638da5cb5b146200048d578063a997f82f14620004a3578063abe8014a14620004bc578063b5545a3c14620004d2578063c02aaea114620004e8578063c040e6b814620004fe578063e83157421462000539578063ec8ac4d8146200054f578063ecb70fb71462000565578063f2fde38b146200057b578063fbfa77cf146200059d578063fc0c546a14620005b3578063fde83a3414620005c9575b60006200017a60045434620005df90919063ffffffff16565b9050600060095460a060020a900460ff1660018111156200019757fe5b148015620002105750600f54600080548391600160a060020a03909116906318160ddd90604051602001526040518163ffffffff1660e060020a028152600401602060405180830381600087803b1515620001f157600080fd5b6102c65a03f115156200020357600080fd5b5050506040518051905001115b15620002b457600160a060020a0333163480156108fc0290604051600060405180830381858888f1935050505015156200024957600080fd5b7fc0283f9c45b2118c7ec26e4f4bf06fc486f94a186fb38dc5dff372d9cb709d3760405160208082526010908201527f50726549434f204c696d697420486974000000000000000000000000000000006040808301919091526060909101905180910390a1620002fa565b620002bf3362000619565b600060095460a060020a900460ff166001811115620002da57fe5b1415620002fa57601054620002f6903463ffffffff6200074e16565b6010555b50005b34156200030957600080fd5b620003136200075e565b60405190815260200160405180910390f35b34156200033157600080fd5b6200031362000764565b34156200034757600080fd5b620003136200076a565b34156200035d57600080fd5b6200031362000770565b34156200037357600080fd5b6200031362000776565b34156200038957600080fd5b620003936200077c565b005b3415620003a157600080fd5b6200031362000822565b3415620003b757600080fd5b620003c162000828565b604051600160a060020a03909116815260200160405180910390f35b3415620003e957600080fd5b6200031362000837565b3415620003ff57600080fd5b620003136200083d565b34156200041557600080fd5b6200031362000843565b34156200042b57600080fd5b6200043562000849565b604051901515815260200160405180910390f35b34156200045557600080fd5b62000393600160a060020a036004358116906024358116906044351662000854565b34156200048357600080fd5b6200043562000ab7565b34156200049957600080fd5b620003c162000ac7565b3415620004af57600080fd5b6200039360043562000ad6565b3415620004c857600080fd5b6200031362000bb0565b3415620004de57600080fd5b6200039362000bb6565b3415620004f457600080fd5b6200031362000c47565b34156200050a57600080fd5b6200051462000c4d565b604051808260018111156200052557fe5b60ff16815260200191505060405180910390f35b34156200054557600080fd5b6200031362000c5d565b62000393600160a060020a036004351662000619565b34156200057157600080fd5b6200043562000c63565b34156200058757600080fd5b62000393600160a060020a036004351662000c68565b3415620005a957600080fd5b620003c162000d05565b3415620005bf57600080fd5b620003c162000d14565b3415620005d557600080fd5b6200031362000d23565b600080831515620005f4576000915062000612565b508282028284828115156200060557fe5b04146200060e57fe5b8091505b5092915050565b600080600160a060020a03831615156200063257600080fd5b6200063c62000d29565b15156200064857600080fd5b349150620006568262000d63565b6005549091506200066e908363ffffffff6200074e16565b60055560008054600160a060020a0316906340c10f1990859084906040516020015260405160e060020a63ffffffff8516028152600160a060020a0390921660048301526024820152604401602060405180830381600087803b1515620006d457600080fd5b6102c65a03f11515620006e657600080fd5b505050604051805190505082600160a060020a031633600160a060020a03167f623b3804fa71d67900d064613da8f94b9617215ee90799290593e1745087ad18848460405191825260208201526040908101905180910390a36200074962000d82565b505050565b6000828201838110156200060e57fe5b60045481565b60025481565b60065481565b60085481565b60055481565b60075433600160a060020a039081169116146200079857600080fd5b60075460a060020a900460ff1615620007b057600080fd5b620007ba62000c63565b1515620007c657600080fd5b620007d062000efd565b7f6823b073d48d6e3a7d385eeb601452d680e74bb46afe3255a7d778f3a9b1768160405160405180910390a16007805474ff0000000000000000000000000000000000000000191660a060020a179055565b600b5481565b600354600160a060020a031681565b600e5481565b600d5481565b60015481565b600854600554101590565b600754600090819033600160a060020a039081169116146200087557600080fd5b60075460a060020a900460ff16156200088d57600080fd5b60008054600160a060020a0316906318160ddd90604051602001526040518163ffffffff1660e060020a028152600401602060405180830381600087803b1515620008d757600080fd5b6102c65a03f11515620008e957600080fd5b5050506040518051600a54909350831090506200090557600080fd5b81600e5403905060008111156200091f57600b8054820190555b60008054600c54600160a060020a03909116916340c10f199188916040516020015260405160e060020a63ffffffff8516028152600160a060020a0390921660048301526024820152604401602060405180830381600087803b15156200098557600080fd5b6102c65a03f115156200099757600080fd5b5050506040518051505060008054600b54600160a060020a03909116916340c10f199187916040516020015260405160e060020a63ffffffff8516028152600160a060020a0390921660048301526024820152604401602060405180830381600087803b151562000a0757600080fd5b6102c65a03f1151562000a1957600080fd5b5050506040518051505060008054600d54600160a060020a03909116916340c10f199186916040516020015260405160e060020a63ffffffff8516028152600160a060020a0390921660048301526024820152604401602060405180830381600087803b151562000a8957600080fd5b6102c65a03f1151562000a9b57600080fd5b505050604051805190505062000ab06200077c565b5050505050565b60075460a060020a900460ff1681565b600754600160a060020a031681565b60075460009033600160a060020a0390811691161462000af557600080fd5b81151562000b065750600062000b14565b816001141562000b14575060015b6009805482919074ff0000000000000000000000000000000000000000191660a060020a83600181111562000b4557fe5b0217905550600060095460a060020a900460ff16600181111562000b6557fe5b141562000b7e5762000b78600562000fc8565b62000bac565b600160095460a060020a900460ff16600181111562000b9957fe5b141562000bac5762000bac600262000fc8565b5050565b60105481565b60075460a060020a900460ff16151562000bcf57600080fd5b62000bd962000849565b1562000be457600080fd5b600954600160a060020a031663fa89401a3360405160e060020a63ffffffff8416028152600160a060020a039091166004820152602401600060405180830381600087803b151562000c3557600080fd5b6102c65a03f115156200074957600080fd5b600f5481565b60095460a060020a900460ff1681565b600a5481565b600190565b60075433600160a060020a0390811691161462000c8457600080fd5b600160a060020a038116151562000c9a57600080fd5b600754600160a060020a0380831691167f8be0079c531659141344cd1fd0a4f28419497f9722a3daafe3b4186f6b6457e060405160405180910390a36007805473ffffffffffffffffffffffffffffffffffffffff1916600160a060020a0392909216919091179055565b600954600160a060020a031681565b600054600160a060020a031681565b600c5481565b60008060065462000d46346005546200074e90919063ffffffff16565b1115905080801562000d5d575062000d5d62000fcd565b91505090565b600062000d7c60045483620005df90919063ffffffff16565b92915050565b600060095460a060020a900460ff16600181111562000d9d57fe5b141562000e4457600354600160a060020a03163480156108fc0290604051600060405180830381858888f19350505050151562000dd957600080fd5b7f47af8c4076c54a76f613f82e4296a2c5e2167698d368157a82e62398393e345e6040516020808252601a908201527f666f7277617264696e672066756e647320746f2077616c6c65740000000000006040808301919091526060909101905180910390a162000efb565b600160095460a060020a900460ff16600181111562000e5f57fe5b141562000efb577f47af8c4076c54a76f613f82e4296a2c5e2167698d368157a82e62398393e345e60405160208082526024908201527f666f7277617264696e672066756e647320746f20726566756e6461626c6520766040808301919091527f61756c740000000000000000000000000000000000000000000000000000000060608301526080909101905180910390a162000efb62000fff565b565b62000f0762000849565b1562000f6857600954600160a060020a03166343d726d66040518163ffffffff1660e060020a028152600401600060405180830381600087803b151562000f4d57600080fd5b6102c65a03f1151562000f5f57600080fd5b50505062000fbe565b600954600160a060020a0316638c52dc416040518163ffffffff1660e060020a028152600401600060405180830381600087803b151562000fa857600080fd5b6102c65a03f1151562000fba57600080fd5b5050505b62000efb62000efb565b600455565b6000806000600154421015801562000fe757506002544211155b91505034151581801562000ff85750805b9250505090565b600954600160a060020a031663f340fa01343360405160e060020a63ffffffff8516028152600160a060020a0390911660048201526024016000604051808303818588803b15156200105057600080fd5b6125ee5a03f115156200106257600080fd5b50505050565b60006200107462001090565b604051809103906000f08015156200108b57600080fd5b905090565b604051610d9380620010a2833901905600606060409081526003805460a060020a60ff02191690558051908101604052600681527f436861696e3300000000000000000000000000000000000000000000000000006020820152600490805161005b9291602001906100d3565b5060408051908101604052600281527f4333000000000000000000000000000000000000000000000000000000000000602082015260059080516100a39291602001906100d3565b506006805460ff1916601217905560038054600160a060020a033316600160a060020a031990911617905561016e565b828054600181600116156101000203166002900490600052602060002090601f016020900481019282601f1061011457805160ff1916838001178555610141565b82800160010185558215610141579182015b82811115610141578251825591602001919060010190610126565b5061014d929150610151565b5090565b61016b91905b8082111561014d5760008155600101610157565b90565b610c168061017d6000396000f3006060604052600436106100e55763ffffffff7c010000000000000000000000000000000000000000000000000000000060003504166305d2035b81146100ea57806306fdde0314610111578063095ea7b31461019b57806318160ddd146101bd57806323b872dd146101e2578063313ce5671461020a57806340c10f1914610233578063661884631461025557806370a08231146102775780637d64bcb4146102965780638da5cb5b146102a957806395d89b41146102d8578063a9059cbb146102eb578063d73dd6231461030d578063dd62ed3e1461032f578063f2fde38b14610354575b600080fd5b34156100f557600080fd5b6100fd610375565b604051901515815260200160405180910390f35b341561011c57600080fd5b610124610385565b60405160208082528190810183818151815260200191508051906020019080838360005b83811015610160578082015183820152602001610148565b50505050905090810190601f16801561018d5780820380516001836020036101000a031916815260200191505b509250505060405180910390f35b34156101a657600080fd5b6100fd600160a060020a0360043516602435610423565b34156101c857600080fd5b6101d061048f565b60405190815260200160405180910390f35b34156101ed57600080fd5b6100fd600160a060020a0360043581169060243516604435610495565b341561021557600080fd5b61021d610615565b60405160ff909116815260200160405180910390f35b341561023e57600080fd5b6100fd600160a060020a036004351660243561061e565b341561026057600080fd5b6100fd600160a060020a036004351660243561072c565b341561028257600080fd5b6101d0600160a060020a0360043516610826565b34156102a157600080fd5b6100fd610841565b34156102b457600080fd5b6102bc6108cc565b604051600160a060020a03909116815260200160405180910390f35b34156102e357600080fd5b6101246108db565b34156102f657600080fd5b6100fd600160a060020a0360043516602435610946565b341561031857600080fd5b6100fd600160a060020a0360043516602435610a58565b341561033a57600080fd5b6101d0600160a060020a0360043581169060243516610afc565b341561035f57600080fd5b610373600160a060020a0360043516610b27565b005b60035460a060020a900460ff1681565b60048054600181600116156101000203166002900480601f01602080910402602001604051908101604052809291908181526020018280546001816001161561010002031660029004801561041b5780601f106103f05761010080835404028352916020019161041b565b820191906000526020600020905b8154815290600101906020018083116103fe57829003601f168201915b505050505081565b600160a060020a03338116600081815260026020908152604080832094871680845294909152808220859055909291907f8c5be1e5ebec7d5bd14f71427d1e84f3dd0314c0f7b2291e5b200ac8c7c3b9259085905190815260200160405180910390a350600192915050565b60015490565b6000600160a060020a03831615156104ac57600080fd5b600160a060020a0384166000908152602081905260409020548211156104d157600080fd5b600160a060020a038085166000908152600260209081526040808320339094168352929052205482111561050457600080fd5b600160a060020a03841660009081526020819052604090205461052d908363ffffffff610bc216565b600160a060020a038086166000908152602081905260408082209390935590851681522054610562908363ffffffff610bd416565b600160a060020a03808516600090815260208181526040808320949094558783168252600281528382203390931682529190915220546105a8908363ffffffff610bc216565b600160a060020a03808616600081815260026020908152604080832033861684529091529081902093909355908516917fddf252ad1be2c89b69c2b068fc378daa952ba7f163c4a11628f55a4df523b3ef9085905190815260200160405180910390a35060019392505050565b60065460ff1681565b60035460009033600160a060020a0390811691161461063c57600080fd5b60035460a060020a900460ff161561065357600080fd5b600154610666908363ffffffff610bd416565b600155600160a060020a038316600090815260208190526040902054610692908363ffffffff610bd416565b600160a060020a0384166000818152602081905260409081902092909255907f0f6798a560793a54c3bcfe86a93cde1e73087d944c0ea20544137d41213968859084905190815260200160405180910390a2600160a060020a03831660007fddf252ad1be2c89b69c2b068fc378daa952ba7f163c4a11628f55a4df523b3ef8460405190815260200160405180910390a350600192915050565b600160a060020a0333811660009081526002602090815260408083209386168352929052908120548083111561078957600160a060020a0333811660009081526002602090815260408083209388168352929052908120556107c0565b610799818463ffffffff610bc216565b600160a060020a033381166000908152600260209081526040808320938916835292905220555b600160a060020a0333811660008181526002602090815260408083209489168084529490915290819020547f8c5be1e5ebec7d5bd14f71427d1e84f3dd0314c0f7b2291e5b200ac8c7c3b925915190815260200160405180910390a35060019392505050565b600160a060020a031660009081526020819052604090205490565b60035460009033600160a060020a0390811691161461085f57600080fd5b60035460a060020a900460ff161561087657600080fd5b6003805474ff0000000000000000000000000000000000000000191660a060020a1790557fae5184fba832cb2b1f702aca6117b8d265eaf03ad33eb133f19dde0f5920fa0860405160405180910390a150600190565b600354600160a060020a031681565b60058054600181600116156101000203166002900480601f01602080910402602001604051908101604052809291908181526020018280546001816001161561010002031660029004801561041b5780601f106103f05761010080835404028352916020019161041b565b6000600160a060020a038316151561095d57600080fd5b600160a060020a03331660009081526020819052604090205482111561098257600080fd5b600160a060020a0333166000908152602081905260409020546109ab908363ffffffff610bc216565b600160a060020a0333811660009081526020819052604080822093909355908516815220546109e0908363ffffffff610bd416565b60008085600160a060020a0316600160a060020a031681526020019081526020016000208190555082600160a060020a031633600160a060020a03167fddf252ad1be2c89b69c2b068fc378daa952ba7f163c4a11628f55a4df523b3ef8460405190815260200160405180910390a350600192915050565b600160a060020a033381166000908152600260209081526040808320938616835292905290812054610a90908363ffffffff610bd416565b600160a060020a0333811660008181526002602090815260408083209489168084529490915290819020849055919290917f8c5be1e5ebec7d5bd14f71427d1e84f3dd0314c0f7b2291e5b200ac8c7c3b92591905190815260200160405180910390a350600192915050565b600160a060020a03918216600090815260026020908152604080832093909416825291909152205490565b60035433600160a060020a03908116911614610b4257600080fd5b600160a060020a0381161515610b5757600080fd5b600354600160a060020a0380831691167f8be0079c531659141344cd1fd0a4f28419497f9722a3daafe3b4186f6b6457e060405160405180910390a36003805473ffffffffffffffffffffffffffffffffffffffff1916600160a060020a0392909216919091179055565b600082821115610bce57fe5b50900390565b600082820183811015610be357fe5b93925050505600a165627a7a7230582010b87c25a4d7daa983c4fc05453a8a6ca0fd543751b2fa6e5e3ff9bf36c997b40029a165627a7a7230582003776a6ec7fc9901c1ea07a7362460d3368a4a7e65a5caa398b70d616baab96a00296060604052341561000f57600080fd5b60405160208061060c8339810160405280805160008054600160a060020a03191633600160a060020a039081169190911790915590925082161515905061005557600080fd5b60028054600160a060020a031916600160a060020a03929092169190911760a060020a60ff021916905561057e8061008e6000396000f3006060604052600436106100985763ffffffff7c010000000000000000000000000000000000000000000000000000000060003504166343d726d6811461009d578063521eb273146100b25780638c52dc41146100e15780638da5cb5b146100f4578063c19d93fb14610107578063cb13cddb1461013e578063f2fde38b1461016f578063f340fa011461018e578063fa89401a146101a2575b600080fd5b34156100a857600080fd5b6100b06101c1565b005b34156100bd57600080fd5b6100c561029c565b604051600160a060020a03909116815260200160405180910390f35b34156100ec57600080fd5b6100b06102ab565b34156100ff57600080fd5b6100c561033c565b341561011257600080fd5b61011a61034b565b6040518082600281111561012a57fe5b60ff16815260200191505060405180910390f35b341561014957600080fd5b61015d600160a060020a036004351661035b565b60405190815260200160405180910390f35b341561017a57600080fd5b6100b0600160a060020a036004351661036d565b6100b0600160a060020a0360043516610408565b34156101ad57600080fd5b6100b0600160a060020a036004351661048c565b60005433600160a060020a039081169116146101dc57600080fd5b60006002805460a060020a900460ff16908111156101f657fe5b1461020057600080fd5b6002805474ff00000000000000000000000000000000000000001916740200000000000000000000000000000000000000001790557f1cdde67b72a90f19919ac732a437ac2f7a10fc128d28c2a6e525d89ce5cd9d3a60405160405180910390a1600254600160a060020a039081169030163180156108fc0290604051600060405180830381858888f19350505050151561029a57600080fd5b565b600254600160a060020a031681565b60005433600160a060020a039081169116146102c657600080fd5b60006002805460a060020a900460ff16908111156102e057fe5b146102ea57600080fd5b6002805474ff0000000000000000000000000000000000000000191660a060020a1790557f599d8e5a83cffb867d051598c4d70e805d59802d8081c1c7d6dffc5b6aca2b8960405160405180910390a1565b600054600160a060020a031681565b60025460a060020a900460ff1681565b60016020526000908152604090205481565b60005433600160a060020a0390811691161461038857600080fd5b600160a060020a038116151561039d57600080fd5b600054600160a060020a0380831691167f8be0079c531659141344cd1fd0a4f28419497f9722a3daafe3b4186f6b6457e060405160405180910390a36000805473ffffffffffffffffffffffffffffffffffffffff1916600160a060020a0392909216919091179055565b60005433600160a060020a0390811691161461042357600080fd5b60006002805460a060020a900460ff169081111561043d57fe5b1461044757600080fd5b600160a060020a038116600090815260016020526040902054610470903463ffffffff61053c16565b600160a060020a03909116600090815260016020526040902055565b600060016002805460a060020a900460ff16908111156104a857fe5b146104b257600080fd5b50600160a060020a038116600081815260016020526040808220805492905590919082156108fc0290839051600060405180830381858888f1935050505015156104fb57600080fd5b81600160a060020a03167fd7dee2702d63ad89917b6a4da9981c90c4d24f8c2bdfd64c604ecae57d8d06518260405190815260200160405180910390a25050565b60008282018381101561054b57fe5b93925050505600a165627a7a72305820a773f0d1fb76300cced31acf9528258287bc5e1029fe78860691b8df8646ef080029606060409081526003805460a060020a60ff02191690558051908101604052600681527f436861696e3300000000000000000000000000000000000000000000000000006020820152600490805161005b9291602001906100d3565b5060408051908101604052600281527f4333000000000000000000000000000000000000000000000000000000000000602082015260059080516100a39291602001906100d3565b506006805460ff1916601217905560038054600160a060020a033316600160a060020a031990911617905561016e565b828054600181600116156101000203166002900490600052602060002090601f016020900481019282601f1061011457805160ff1916838001178555610141565b82800160010185558215610141579182015b82811115610141578251825591602001919060010190610126565b5061014d929150610151565b5090565b61016b91905b8082111561014d5760008155600101610157565b90565b610c168061017d6000396000f3006060604052600436106100e55763ffffffff7c010000000000000000000000000000000000000000000000000000000060003504166305d2035b81146100ea57806306fdde0314610111578063095ea7b31461019b57806318160ddd146101bd57806323b872dd146101e2578063313ce5671461020a57806340c10f1914610233578063661884631461025557806370a08231146102775780637d64bcb4146102965780638da5cb5b146102a957806395d89b41146102d8578063a9059cbb146102eb578063d73dd6231461030d578063dd62ed3e1461032f578063f2fde38b14610354575b600080fd5b34156100f557600080fd5b6100fd610375565b604051901515815260200160405180910390f35b341561011c57600080fd5b610124610385565b60405160208082528190810183818151815260200191508051906020019080838360005b83811015610160578082015183820152602001610148565b50505050905090810190601f16801561018d5780820380516001836020036101000a031916815260200191505b509250505060405180910390f35b34156101a657600080fd5b6100fd600160a060020a0360043516602435610423565b34156101c857600080fd5b6101d061048f565b60405190815260200160405180910390f35b34156101ed57600080fd5b6100fd600160a060020a0360043581169060243516604435610495565b341561021557600080fd5b61021d610615565b60405160ff909116815260200160405180910390f35b341561023e57600080fd5b6100fd600160a060020a036004351660243561061e565b341561026057600080fd5b6100fd600160a060020a036004351660243561072c565b341561028257600080fd5b6101d0600160a060020a0360043516610826565b34156102a157600080fd5b6100fd610841565b34156102b457600080fd5b6102bc6108cc565b604051600160a060020a03909116815260200160405180910390f35b34156102e357600080fd5b6101246108db565b34156102f657600080fd5b6100fd600160a060020a0360043516602435610946565b341561031857600080fd5b6100fd600160a060020a0360043516602435610a58565b341561033a57600080fd5b6101d0600160a060020a0360043581169060243516610afc565b341561035f57600080fd5b610373600160a060020a0360043516610b27565b005b60035460a060020a900460ff1681565b60048054600181600116156101000203166002900480601f01602080910402602001604051908101604052809291908181526020018280546001816001161561010002031660029004801561041b5780601f106103f05761010080835404028352916020019161041b565b820191906000526020600020905b8154815290600101906020018083116103fe57829003601f168201915b505050505081565b600160a060020a03338116600081815260026020908152604080832094871680845294909152808220859055909291907f8c5be1e5ebec7d5bd14f71427d1e84f3dd0314c0f7b2291e5b200ac8c7c3b9259085905190815260200160405180910390a350600192915050565b60015490565b6000600160a060020a03831615156104ac57600080fd5b600160a060020a0384166000908152602081905260409020548211156104d157600080fd5b600160a060020a038085166000908152600260209081526040808320339094168352929052205482111561050457600080fd5b600160a060020a03841660009081526020819052604090205461052d908363ffffffff610bc216565b600160a060020a038086166000908152602081905260408082209390935590851681522054610562908363ffffffff610bd416565b600160a060020a03808516600090815260208181526040808320949094558783168252600281528382203390931682529190915220546105a8908363ffffffff610bc216565b600160a060020a03808616600081815260026020908152604080832033861684529091529081902093909355908516917fddf252ad1be2c89b69c2b068fc378daa952ba7f163c4a11628f55a4df523b3ef9085905190815260200160405180910390a35060019392505050565b60065460ff1681565b60035460009033600160a060020a0390811691161461063c57600080fd5b60035460a060020a900460ff161561065357600080fd5b600154610666908363ffffffff610bd416565b600155600160a060020a038316600090815260208190526040902054610692908363ffffffff610bd416565b600160a060020a0384166000818152602081905260409081902092909255907f0f6798a560793a54c3bcfe86a93cde1e73087d944c0ea20544137d41213968859084905190815260200160405180910390a2600160a060020a03831660007fddf252ad1be2c89b69c2b068fc378daa952ba7f163c4a11628f55a4df523b3ef8460405190815260200160405180910390a350600192915050565b600160a060020a0333811660009081526002602090815260408083209386168352929052908120548083111561078957600160a060020a0333811660009081526002602090815260408083209388168352929052908120556107c0565b610799818463ffffffff610bc216565b600160a060020a033381166000908152600260209081526040808320938916835292905220555b600160a060020a0333811660008181526002602090815260408083209489168084529490915290819020547f8c5be1e5ebec7d5bd14f71427d1e84f3dd0314c0f7b2291e5b200ac8c7c3b925915190815260200160405180910390a35060019392505050565b600160a060020a031660009081526020819052604090205490565b60035460009033600160a060020a0390811691161461085f57600080fd5b60035460a060020a900460ff161561087657600080fd5b6003805474ff0000000000000000000000000000000000000000191660a060020a1790557fae5184fba832cb2b1f702aca6117b8d265eaf03ad33eb133f19dde0f5920fa0860405160405180910390a150600190565b600354600160a060020a031681565b60058054600181600116156101000203166002900480601f01602080910402602001604051908101604052809291908181526020018280546001816001161561010002031660029004801561041b5780601f106103f05761010080835404028352916020019161041b565b6000600160a060020a038316151561095d57600080fd5b600160a060020a03331660009081526020819052604090205482111561098257600080fd5b600160a060020a0333166000908152602081905260409020546109ab908363ffffffff610bc216565b600160a060020a0333811660009081526020819052604080822093909355908516815220546109e0908363ffffffff610bd416565b60008085600160a060020a0316600160a060020a031681526020019081526020016000208190555082600160a060020a031633600160a060020a03167fddf252ad1be2c89b69c2b068fc378daa952ba7f163c4a11628f55a4df523b3ef8460405190815260200160405180910390a350600192915050565b600160a060020a033381166000908152600260209081526040808320938616835292905290812054610a90908363ffffffff610bd416565b600160a060020a0333811660008181526002602090815260408083209489168084529490915290819020849055919290917f8c5be1e5ebec7d5bd14f71427d1e84f3dd0314c0f7b2291e5b200ac8c7c3b92591905190815260200160405180910390a350600192915050565b600160a060020a03918216600090815260026020908152604080832093909416825291909152205490565b60035433600160a060020a03908116911614610b4257600080fd5b600160a060020a0381161515610b5757600080fd5b600354600160a060020a0380831691167f8be0079c531659141344cd1fd0a4f28419497f9722a3daafe3b4186f6b6457e060405160405180910390a36003805473ffffffffffffffffffffffffffffffffffffffff1916600160a060020a0392909216919091179055565b600082821115610bce57fe5b50900390565b600082820183811015610be357fe5b93925050505600a165627a7a7230582010b87c25a4d7daa983c4fc05453a8a6ca0fd543751b2fa6e5e3ff9bf36c997b40029",
  "source": "pragma solidity ^0.4.18;\n\nimport './Chain3Token.sol';\nimport 'zeppelin-solidity/contracts/crowdsale/CappedCrowdsale.sol';\nimport 'zeppelin-solidity/contracts/crowdsale/RefundableCrowdsale.sol';\n\ncontract Chain3Crowdsale is CappedCrowdsale, RefundableCrowdsale {\n\n  // ICO Stage\n  // ============\n  enum CrowdsaleStage { PreICO, ICO }\n  CrowdsaleStage public stage = CrowdsaleStage.PreICO; // By default it's Pre Sale\n  // =============\n\n  // Token Distribution\n  // =============================\n  uint256 public maxTokens = 300000000000000000000; // There will be total 300 Chain3 Tokens\n  uint256 public tokensForEcosystem = 30000000000000000000;\n  uint256 public tokensForTeam = 20000000000000000000;\n  uint256 public tokensForBounty = 10000000000000000000;\n  uint256 public totalTokensForSale = 90000000000000000000; // 90 C3s will be sold in Crowdsale\n  uint256 public totalTokensForSaleDuringPreICO = 30000000000000000000; // 30 out of 90 HTs will be sold during PreICO\n  // ==============================\n\n  // Amount raised in PreICO\n  // ==================\n  uint256 public totalWeiRaisedDuringPreICO;\n  // ===================\n\n\n  // Events\n  event EthTransferred(string text);\n  event EthRefunded(string text);\n\n\n  // Constructor\n  // ============\n  function Chain3Crowdsale(uint256 _startTime, uint256 _endTime, uint256 _rate, address _wallet, uint256 _goal, uint256 _cap) CappedCrowdsale(_cap) FinalizableCrowdsale() RefundableCrowdsale(_goal) Crowdsale(_startTime, _endTime, _rate, _wallet) public {\n      require(_goal <= _cap);\n  }\n  // =============\n\n  // Token Deployment\n  // =================\n  function createTokenContract() internal returns (MintableToken) {\n    return new Chain3Token(); // Deploys the ERC20 token. Automatically called when crowdsale contract is deployed\n  }\n  // ==================\n\n  // Crowdsale Stage Management\n  // =========================================================\n\n  // Change Crowdsale Stage. Available Options: PreICO, ICO\n  function setCrowdsaleStage(uint value) public onlyOwner {\n\n      CrowdsaleStage _stage;\n\n      if (uint(CrowdsaleStage.PreICO) == value) {\n        _stage = CrowdsaleStage.PreICO;\n      } else if (uint(CrowdsaleStage.ICO) == value) {\n        _stage = CrowdsaleStage.ICO;\n      }\n\n      stage = _stage;\n\n      if (stage == CrowdsaleStage.PreICO) {\n        setCurrentRate(5);\n      } else if (stage == CrowdsaleStage.ICO) {\n        setCurrentRate(2);\n      }\n  }\n\n  // Change the current rate\n  function setCurrentRate(uint256 _rate) private {\n      rate = _rate;\n  }\n\n  // ================ Stage Management Over =====================\n\n  // Token Purchase\n  // =========================\n  function () external payable {\n      uint256 tokensThatWillBeMintedAfterPurchase = msg.value.mul(rate);\n      if ((stage == CrowdsaleStage.PreICO) && (token.totalSupply() + tokensThatWillBeMintedAfterPurchase > totalTokensForSaleDuringPreICO)) {\n        msg.sender.transfer(msg.value); // Refund them\n        EthRefunded(\"PreICO Limit Hit\");\n        return;\n      }\n\n      buyTokens(msg.sender);\n\n      if (stage == CrowdsaleStage.PreICO) {\n          totalWeiRaisedDuringPreICO = totalWeiRaisedDuringPreICO.add(msg.value);\n      }\n  }\n\n  function forwardFunds() internal {\n      if (stage == CrowdsaleStage.PreICO) {\n          wallet.transfer(msg.value);\n          EthTransferred(\"forwarding funds to wallet\");\n      } else if (stage == CrowdsaleStage.ICO) {\n          EthTransferred(\"forwarding funds to refundable vault\");\n          super.forwardFunds();\n      }\n  }\n  // ===========================\n\n  // Finish: Mint Extra Tokens as needed before finalizing the Crowdsale.\n  // ====================================================================\n\n  function finish(address _teamFund, address _ecosystemFund, address _bountyFund) public onlyOwner {\n\n      require(!isFinalized);\n      uint256 alreadyMinted = token.totalSupply();\n      require(alreadyMinted < maxTokens);\n\n      uint256 unsoldTokens = totalTokensForSale - alreadyMinted;\n      if (unsoldTokens > 0) {\n        tokensForEcosystem = tokensForEcosystem + unsoldTokens;\n      }\n\n      token.mint(_teamFund,tokensForTeam);\n      token.mint(_ecosystemFund,tokensForEcosystem);\n      token.mint(_bountyFund,tokensForBounty);\n      finalize();\n  }\n  // ===============================\n\n  // REMOVE THIS FUNCTION ONCE YOU ARE READY FOR PRODUCTION\n  // USEFUL FOR TESTING `finish()` FUNCTION\n  function hasEnded() public view returns (bool) {\n    return true;\n  }\n}\n",
  "sourcePath": "/Users/blockcow/Documents/Chain3/contracts/Chain3Crowdsale.sol",
  "compiler": {
    "name": "solc",
    "version": "0.4.19+commit.c4cbbb05.Emscripten.clang"
  },
  "schemaVersion": "1.0.1",
  "updatedAt": "2018-02-10T15:47:24.037Z"
}