{
  "contractName": "Crowdsale",
  "abi": [
    {
      "constant": true,
      "inputs": [],
      "name": "rate",
      "outputs": [
        {
          "name": "",
          "type": "uint256"
        }
      ],
      "payable": false,
      "stateMutability": "view",
      "type": "function"
    },
    {
      "constant": true,
      "inputs": [],
      "name": "endTime",
      "outputs": [
        {
          "name": "",
          "type": "uint256"
        }
      ],
      "payable": false,
      "stateMutability": "view",
      "type": "function"
    },
    {
      "constant": true,
      "inputs": [],
      "name": "weiRaised",
      "outputs": [
        {
          "name": "",
          "type": "uint256"
        }
      ],
      "payable": false,
      "stateMutability": "view",
      "type": "function"
    },
    {
      "constant": true,
      "inputs": [],
      "name": "wallet",
      "outputs": [
        {
          "name": "",
          "type": "address"
        }
      ],
      "payable": false,
      "stateMutability": "view",
      "type": "function"
    },
    {
      "constant": true,
      "inputs": [],
      "name": "startTime",
      "outputs": [
        {
          "name": "",
          "type": "uint256"
        }
      ],
      "payable": false,
      "stateMutability": "view",
      "type": "function"
    },
    {
      "constant": true,
      "inputs": [],
      "name": "token",
      "outputs": [
        {
          "name": "",
          "type": "address"
        }
      ],
      "payable": false,
      "stateMutability": "view",
      "type": "function"
    },
    {
      "inputs": [
        {
          "name": "_startTime",
          "type": "uint256"
        },
        {
          "name": "_endTime",
          "type": "uint256"
        },
        {
          "name": "_rate",
          "type": "uint256"
        },
        {
          "name": "_wallet",
          "type": "address"
        }
      ],
      "payable": false,
      "stateMutability": "nonpayable",
      "type": "constructor"
    },
    {
      "payable": true,
      "stateMutability": "payable",
      "type": "fallback"
    },
    {
      "anonymous": false,
      "inputs": [
        {
          "indexed": true,
          "name": "purchaser",
          "type": "address"
        },
        {
          "indexed": true,
          "name": "beneficiary",
          "type": "address"
        },
        {
          "indexed": false,
          "name": "value",
          "type": "uint256"
        },
        {
          "indexed": false,
          "name": "amount",
          "type": "uint256"
        }
      ],
      "name": "TokenPurchase",
      "type": "event"
    },
    {
      "constant": false,
      "inputs": [
        {
          "name": "beneficiary",
          "type": "address"
        }
      ],
      "name": "buyTokens",
      "outputs": [],
      "payable": true,
      "stateMutability": "payable",
      "type": "function"
    },
    {
      "constant": true,
      "inputs": [],
      "name": "hasEnded",
      "outputs": [
        {
          "name": "",
          "type": "bool"
        }
      ],
      "payable": false,
      "stateMutability": "view",
      "type": "function"
    }
  ],
  "bytecode": "0x6060604052341561000f57600080fd5b6040516080806119c3833981016040528080519190602001805191906020018051919060200180519150504284101561004757600080fd5b8383101561005457600080fd5b6000821161006157600080fd5b600160a060020a038116151561007657600080fd5b61008b6401000000006103bb6100cd82021704565b60008054600160a060020a0319908116600160a060020a0393841617909155600195909555600293909355600491909155600380549093169116179055610102565b60006100d76100f2565b604051809103906000f08015156100ed57600080fd5b905090565b604051610a4b80610f7883390190565b610e67806101116000396000f30060606040526004361061008d5763ffffffff7c01000000000000000000000000000000000000000000000000000000006000350416632c4e722e81146100985780633197cbb6146100bd5780634042b66f146100d0578063521eb273146100e357806378e9792514610112578063ec8ac4d814610125578063ecb70fb714610139578063fc0c546a14610160575b61009633610173565b005b34156100a357600080fd5b6100ab6102b5565b60405190815260200160405180910390f35b34156100c857600080fd5b6100ab6102bb565b34156100db57600080fd5b6100ab6102c1565b34156100ee57600080fd5b6100f66102c7565b604051600160a060020a03909116815260200160405180910390f35b341561011d57600080fd5b6100ab6102d6565b610096600160a060020a0360043516610173565b341561014457600080fd5b61014c6102dc565b604051901515815260200160405180910390f35b341561016b57600080fd5b6100f66102e4565b600080600160a060020a038316151561018b57600080fd5b6101936102f3565b151561019e57600080fd5b3491506101aa82610323565b6005549091506101c0908363ffffffff61034016565b60055560008054600160a060020a0316906340c10f199085908490604051602001526040517c010000000000000000000000000000000000000000000000000000000063ffffffff8516028152600160a060020a0390921660048301526024820152604401602060405180830381600087803b151561023e57600080fd5b6102c65a03f1151561024f57600080fd5b505050604051805190505082600160a060020a031633600160a060020a03167f623b3804fa71d67900d064613da8f94b9617215ee90799290593e1745087ad18848460405191825260208201526040908101905180910390a36102b061035a565b505050565b60045481565b60025481565b60055481565b600354600160a060020a031681565b60015481565b600254421190565b600054600160a060020a031681565b6000806000600154421015801561030c57506002544211155b91505034151581801561031c5750805b9250505090565b600061033a6004548361039090919063ffffffff16565b92915050565b60008282018381101561034f57fe5b8091505b5092915050565b600354600160a060020a03163480156108fc0290604051600060405180830381858888f19350505050151561038e57600080fd5b565b6000808315156103a35760009150610353565b508282028284828115156103b357fe5b041461034f57fe5b60006103c56103e0565b604051809103906000f08015156103db57600080fd5b905090565b604051610a4b806103f1833901905600606060405260038054600160a860020a03191633600160a060020a0316179055610a1d8061002e6000396000f3006060604052600436106100c45763ffffffff7c010000000000000000000000000000000000000000000000000000000060003504166305d2035b81146100c9578063095ea7b3146100f057806318160ddd1461011257806323b872dd1461013757806340c10f191461015f578063661884631461018157806370a08231146101a35780637d64bcb4146101c25780638da5cb5b146101d5578063a9059cbb14610204578063d73dd62314610226578063dd62ed3e14610248578063f2fde38b1461026d575b600080fd5b34156100d457600080fd5b6100dc61028e565b604051901515815260200160405180910390f35b34156100fb57600080fd5b6100dc600160a060020a036004351660243561029e565b341561011d57600080fd5b61012561030a565b60405190815260200160405180910390f35b341561014257600080fd5b6100dc600160a060020a0360043581169060243516604435610310565b341561016a57600080fd5b6100dc600160a060020a0360043516602435610490565b341561018c57600080fd5b6100dc600160a060020a036004351660243561059e565b34156101ae57600080fd5b610125600160a060020a0360043516610698565b34156101cd57600080fd5b6100dc6106b3565b34156101e057600080fd5b6101e861073e565b604051600160a060020a03909116815260200160405180910390f35b341561020f57600080fd5b6100dc600160a060020a036004351660243561074d565b341561023157600080fd5b6100dc600160a060020a036004351660243561085f565b341561025357600080fd5b610125600160a060020a0360043581169060243516610903565b341561027857600080fd5b61028c600160a060020a036004351661092e565b005b60035460a060020a900460ff1681565b600160a060020a03338116600081815260026020908152604080832094871680845294909152808220859055909291907f8c5be1e5ebec7d5bd14f71427d1e84f3dd0314c0f7b2291e5b200ac8c7c3b9259085905190815260200160405180910390a350600192915050565b60015490565b6000600160a060020a038316151561032757600080fd5b600160a060020a03841660009081526020819052604090205482111561034c57600080fd5b600160a060020a038085166000908152600260209081526040808320339094168352929052205482111561037f57600080fd5b600160a060020a0384166000908152602081905260409020546103a8908363ffffffff6109c916565b600160a060020a0380861660009081526020819052604080822093909355908516815220546103dd908363ffffffff6109db16565b600160a060020a0380851660009081526020818152604080832094909455878316825260028152838220339093168252919091522054610423908363ffffffff6109c916565b600160a060020a03808616600081815260026020908152604080832033861684529091529081902093909355908516917fddf252ad1be2c89b69c2b068fc378daa952ba7f163c4a11628f55a4df523b3ef9085905190815260200160405180910390a35060019392505050565b60035460009033600160a060020a039081169116146104ae57600080fd5b60035460a060020a900460ff16156104c557600080fd5b6001546104d8908363ffffffff6109db16565b600155600160a060020a038316600090815260208190526040902054610504908363ffffffff6109db16565b600160a060020a0384166000818152602081905260409081902092909255907f0f6798a560793a54c3bcfe86a93cde1e73087d944c0ea20544137d41213968859084905190815260200160405180910390a2600160a060020a03831660007fddf252ad1be2c89b69c2b068fc378daa952ba7f163c4a11628f55a4df523b3ef8460405190815260200160405180910390a350600192915050565b600160a060020a033381166000908152600260209081526040808320938616835292905290812054808311156105fb57600160a060020a033381166000908152600260209081526040808320938816835292905290812055610632565b61060b818463ffffffff6109c916565b600160a060020a033381166000908152600260209081526040808320938916835292905220555b600160a060020a0333811660008181526002602090815260408083209489168084529490915290819020547f8c5be1e5ebec7d5bd14f71427d1e84f3dd0314c0f7b2291e5b200ac8c7c3b925915190815260200160405180910390a35060019392505050565b600160a060020a031660009081526020819052604090205490565b60035460009033600160a060020a039081169116146106d157600080fd5b60035460a060020a900460ff16156106e857600080fd5b6003805474ff0000000000000000000000000000000000000000191660a060020a1790557fae5184fba832cb2b1f702aca6117b8d265eaf03ad33eb133f19dde0f5920fa0860405160405180910390a150600190565b600354600160a060020a031681565b6000600160a060020a038316151561076457600080fd5b600160a060020a03331660009081526020819052604090205482111561078957600080fd5b600160a060020a0333166000908152602081905260409020546107b2908363ffffffff6109c916565b600160a060020a0333811660009081526020819052604080822093909355908516815220546107e7908363ffffffff6109db16565b60008085600160a060020a0316600160a060020a031681526020019081526020016000208190555082600160a060020a031633600160a060020a03167fddf252ad1be2c89b69c2b068fc378daa952ba7f163c4a11628f55a4df523b3ef8460405190815260200160405180910390a350600192915050565b600160a060020a033381166000908152600260209081526040808320938616835292905290812054610897908363ffffffff6109db16565b600160a060020a0333811660008181526002602090815260408083209489168084529490915290819020849055919290917f8c5be1e5ebec7d5bd14f71427d1e84f3dd0314c0f7b2291e5b200ac8c7c3b92591905190815260200160405180910390a350600192915050565b600160a060020a03918216600090815260026020908152604080832093909416825291909152205490565b60035433600160a060020a0390811691161461094957600080fd5b600160a060020a038116151561095e57600080fd5b600354600160a060020a0380831691167f8be0079c531659141344cd1fd0a4f28419497f9722a3daafe3b4186f6b6457e060405160405180910390a36003805473ffffffffffffffffffffffffffffffffffffffff1916600160a060020a0392909216919091179055565b6000828211156109d557fe5b50900390565b6000828201838110156109ea57fe5b93925050505600a165627a7a7230582094d3e2e36489f408621595428f53514744a95ec42a0494e3a2d6cd54a07e88d20029a165627a7a72305820874f1deba15714f2f0cfc93d381fd72fe74bc1a0dbfb863d9429dd2d0341f9cd0029606060405260038054600160a860020a03191633600160a060020a0316179055610a1d8061002e6000396000f3006060604052600436106100c45763ffffffff7c010000000000000000000000000000000000000000000000000000000060003504166305d2035b81146100c9578063095ea7b3146100f057806318160ddd1461011257806323b872dd1461013757806340c10f191461015f578063661884631461018157806370a08231146101a35780637d64bcb4146101c25780638da5cb5b146101d5578063a9059cbb14610204578063d73dd62314610226578063dd62ed3e14610248578063f2fde38b1461026d575b600080fd5b34156100d457600080fd5b6100dc61028e565b604051901515815260200160405180910390f35b34156100fb57600080fd5b6100dc600160a060020a036004351660243561029e565b341561011d57600080fd5b61012561030a565b60405190815260200160405180910390f35b341561014257600080fd5b6100dc600160a060020a0360043581169060243516604435610310565b341561016a57600080fd5b6100dc600160a060020a0360043516602435610490565b341561018c57600080fd5b6100dc600160a060020a036004351660243561059e565b34156101ae57600080fd5b610125600160a060020a0360043516610698565b34156101cd57600080fd5b6100dc6106b3565b34156101e057600080fd5b6101e861073e565b604051600160a060020a03909116815260200160405180910390f35b341561020f57600080fd5b6100dc600160a060020a036004351660243561074d565b341561023157600080fd5b6100dc600160a060020a036004351660243561085f565b341561025357600080fd5b610125600160a060020a0360043581169060243516610903565b341561027857600080fd5b61028c600160a060020a036004351661092e565b005b60035460a060020a900460ff1681565b600160a060020a03338116600081815260026020908152604080832094871680845294909152808220859055909291907f8c5be1e5ebec7d5bd14f71427d1e84f3dd0314c0f7b2291e5b200ac8c7c3b9259085905190815260200160405180910390a350600192915050565b60015490565b6000600160a060020a038316151561032757600080fd5b600160a060020a03841660009081526020819052604090205482111561034c57600080fd5b600160a060020a038085166000908152600260209081526040808320339094168352929052205482111561037f57600080fd5b600160a060020a0384166000908152602081905260409020546103a8908363ffffffff6109c916565b600160a060020a0380861660009081526020819052604080822093909355908516815220546103dd908363ffffffff6109db16565b600160a060020a0380851660009081526020818152604080832094909455878316825260028152838220339093168252919091522054610423908363ffffffff6109c916565b600160a060020a03808616600081815260026020908152604080832033861684529091529081902093909355908516917fddf252ad1be2c89b69c2b068fc378daa952ba7f163c4a11628f55a4df523b3ef9085905190815260200160405180910390a35060019392505050565b60035460009033600160a060020a039081169116146104ae57600080fd5b60035460a060020a900460ff16156104c557600080fd5b6001546104d8908363ffffffff6109db16565b600155600160a060020a038316600090815260208190526040902054610504908363ffffffff6109db16565b600160a060020a0384166000818152602081905260409081902092909255907f0f6798a560793a54c3bcfe86a93cde1e73087d944c0ea20544137d41213968859084905190815260200160405180910390a2600160a060020a03831660007fddf252ad1be2c89b69c2b068fc378daa952ba7f163c4a11628f55a4df523b3ef8460405190815260200160405180910390a350600192915050565b600160a060020a033381166000908152600260209081526040808320938616835292905290812054808311156105fb57600160a060020a033381166000908152600260209081526040808320938816835292905290812055610632565b61060b818463ffffffff6109c916565b600160a060020a033381166000908152600260209081526040808320938916835292905220555b600160a060020a0333811660008181526002602090815260408083209489168084529490915290819020547f8c5be1e5ebec7d5bd14f71427d1e84f3dd0314c0f7b2291e5b200ac8c7c3b925915190815260200160405180910390a35060019392505050565b600160a060020a031660009081526020819052604090205490565b60035460009033600160a060020a039081169116146106d157600080fd5b60035460a060020a900460ff16156106e857600080fd5b6003805474ff0000000000000000000000000000000000000000191660a060020a1790557fae5184fba832cb2b1f702aca6117b8d265eaf03ad33eb133f19dde0f5920fa0860405160405180910390a150600190565b600354600160a060020a031681565b6000600160a060020a038316151561076457600080fd5b600160a060020a03331660009081526020819052604090205482111561078957600080fd5b600160a060020a0333166000908152602081905260409020546107b2908363ffffffff6109c916565b600160a060020a0333811660009081526020819052604080822093909355908516815220546107e7908363ffffffff6109db16565b60008085600160a060020a0316600160a060020a031681526020019081526020016000208190555082600160a060020a031633600160a060020a03167fddf252ad1be2c89b69c2b068fc378daa952ba7f163c4a11628f55a4df523b3ef8460405190815260200160405180910390a350600192915050565b600160a060020a033381166000908152600260209081526040808320938616835292905290812054610897908363ffffffff6109db16565b600160a060020a0333811660008181526002602090815260408083209489168084529490915290819020849055919290917f8c5be1e5ebec7d5bd14f71427d1e84f3dd0314c0f7b2291e5b200ac8c7c3b92591905190815260200160405180910390a350600192915050565b600160a060020a03918216600090815260026020908152604080832093909416825291909152205490565b60035433600160a060020a0390811691161461094957600080fd5b600160a060020a038116151561095e57600080fd5b600354600160a060020a0380831691167f8be0079c531659141344cd1fd0a4f28419497f9722a3daafe3b4186f6b6457e060405160405180910390a36003805473ffffffffffffffffffffffffffffffffffffffff1916600160a060020a0392909216919091179055565b6000828211156109d557fe5b50900390565b6000828201838110156109ea57fe5b93925050505600a165627a7a7230582094d3e2e36489f408621595428f53514744a95ec42a0494e3a2d6cd54a07e88d20029",
  "source": "pragma solidity ^0.4.18;\n\nimport \"../token/ERC20/MintableToken.sol\";\nimport \"../math/SafeMath.sol\";\n\n\n/**\n * @title Crowdsale\n * @dev Crowdsale is a base contract for managing a token crowdsale.\n * Crowdsales have a start and end timestamps, where investors can make\n * token purchases and the crowdsale will assign them tokens based\n * on a token per ETH rate. Funds collected are forwarded to a wallet\n * as they arrive.\n */\ncontract Crowdsale {\n  using SafeMath for uint256;\n\n  // The token being sold\n  MintableToken public token;\n\n  // start and end timestamps where investments are allowed (both inclusive)\n  uint256 public startTime;\n  uint256 public endTime;\n\n  // address where funds are collected\n  address public wallet;\n\n  // how many token units a buyer gets per wei\n  uint256 public rate;\n\n  // amount of raised money in wei\n  uint256 public weiRaised;\n\n  /**\n   * event for token purchase logging\n   * @param purchaser who paid for the tokens\n   * @param beneficiary who got the tokens\n   * @param value weis paid for purchase\n   * @param amount amount of tokens purchased\n   */\n  event TokenPurchase(address indexed purchaser, address indexed beneficiary, uint256 value, uint256 amount);\n\n\n  function Crowdsale(uint256 _startTime, uint256 _endTime, uint256 _rate, address _wallet) public {\n    require(_startTime >= now);\n    require(_endTime >= _startTime);\n    require(_rate > 0);\n    require(_wallet != address(0));\n\n    token = createTokenContract();\n    startTime = _startTime;\n    endTime = _endTime;\n    rate = _rate;\n    wallet = _wallet;\n  }\n\n  // fallback function can be used to buy tokens\n  function () external payable {\n    buyTokens(msg.sender);\n  }\n\n  // low level token purchase function\n  function buyTokens(address beneficiary) public payable {\n    require(beneficiary != address(0));\n    require(validPurchase());\n\n    uint256 weiAmount = msg.value;\n\n    // calculate token amount to be created\n    uint256 tokens = getTokenAmount(weiAmount);\n\n    // update state\n    weiRaised = weiRaised.add(weiAmount);\n\n    token.mint(beneficiary, tokens);\n    TokenPurchase(msg.sender, beneficiary, weiAmount, tokens);\n\n    forwardFunds();\n  }\n\n  // @return true if crowdsale event has ended\n  function hasEnded() public view returns (bool) {\n    return now > endTime;\n  }\n\n  // creates the token to be sold.\n  // override this method to have crowdsale of a specific mintable token.\n  function createTokenContract() internal returns (MintableToken) {\n    return new MintableToken();\n  }\n\n  // Override this method to have a way to add business logic to your crowdsale when buying\n  function getTokenAmount(uint256 weiAmount) internal view returns(uint256) {\n    return weiAmount.mul(rate);\n  }\n\n  // send ether to the fund collection wallet\n  // override to create custom fund forwarding mechanisms\n  function forwardFunds() internal {\n    wallet.transfer(msg.value);\n  }\n\n  // @return true if the transaction can buy tokens\n  function validPurchase() internal view returns (bool) {\n    bool withinPeriod = now >= startTime && now <= endTime;\n    bool nonZeroPurchase = msg.value != 0;\n    return withinPeriod && nonZeroPurchase;\n  }\n\n}\n",
  "sourcePath": "zeppelin-solidity/contracts/crowdsale/Crowdsale.sol",
  "compiler": {
    "name": "solc",
    "version": "0.4.19+commit.c4cbbb05.Emscripten.clang"
  },
  "schemaVersion": "1.0.1",
  "updatedAt": "2018-02-09T19:33:22.048Z"
}